{
  "contractName": "OrganTransplant",
  "abi": [
    {
      "inputs": [
        {
          "internalType": "address",
          "name": "_transactionNode",
          "type": "address"
        },
        {
          "internalType": "address[]",
          "name": "_hospitals",
          "type": "address[]"
        }
      ],
      "stateMutability": "nonpayable",
      "type": "constructor"
    },
    {
      "anonymous": false,
      "inputs": [
        {
          "indexed": true,
          "internalType": "uint256",
          "name": "matchId",
          "type": "uint256"
        }
      ],
      "name": "DeliveryRejected",
      "type": "event"
    },
    {
      "anonymous": false,
      "inputs": [
        {
          "indexed": true,
          "internalType": "uint256",
          "name": "donorId",
          "type": "uint256"
        },
        {
          "indexed": false,
          "internalType": "bytes32",
          "name": "organ",
          "type": "bytes32"
        },
        {
          "indexed": true,
          "internalType": "address",
          "name": "registeredBy",
          "type": "address"
        }
      ],
      "name": "DonorRegistered",
      "type": "event"
    },
    {
      "anonymous": false,
      "inputs": [
        {
          "indexed": true,
          "internalType": "address",
          "name": "newHospital",
          "type": "address"
        }
      ],
      "name": "HospitalAdded",
      "type": "event"
    },
    {
      "anonymous": false,
      "inputs": [
        {
          "indexed": true,
          "internalType": "address",
          "name": "newHospital",
          "type": "address"
        },
        {
          "indexed": true,
          "internalType": "address",
          "name": "proposedBy",
          "type": "address"
        }
      ],
      "name": "HospitalProposed",
      "type": "event"
    },
    {
      "anonymous": false,
      "inputs": [
        {
          "indexed": true,
          "internalType": "address",
          "name": "newHospital",
          "type": "address"
        },
        {
          "indexed": true,
          "internalType": "address",
          "name": "voter",
          "type": "address"
        },
        {
          "indexed": false,
          "internalType": "bool",
          "name": "approved",
          "type": "bool"
        }
      ],
      "name": "HospitalVoteCast",
      "type": "event"
    },
    {
      "anonymous": false,
      "inputs": [
        {
          "indexed": true,
          "internalType": "uint256",
          "name": "matchId",
          "type": "uint256"
        },
        {
          "indexed": false,
          "internalType": "address",
          "name": "donorHospital",
          "type": "address"
        },
        {
          "indexed": false,
          "internalType": "address",
          "name": "recipientHospital",
          "type": "address"
        }
      ],
      "name": "LogisticsInitiated",
      "type": "event"
    },
    {
      "anonymous": false,
      "inputs": [
        {
          "indexed": true,
          "internalType": "uint256",
          "name": "matchId",
          "type": "uint256"
        },
        {
          "indexed": true,
          "internalType": "uint256",
          "name": "donorId",
          "type": "uint256"
        },
        {
          "indexed": true,
          "internalType": "address",
          "name": "patient",
          "type": "address"
        }
      ],
      "name": "MatchCreated",
      "type": "event"
    },
    {
      "anonymous": false,
      "inputs": [
        {
          "indexed": true,
          "internalType": "uint256",
          "name": "matchId",
          "type": "uint256"
        }
      ],
      "name": "NodePickupConfirmedByHospital",
      "type": "event"
    },
    {
      "anonymous": false,
      "inputs": [
        {
          "indexed": true,
          "internalType": "uint256",
          "name": "matchId",
          "type": "uint256"
        }
      ],
      "name": "OrganDelivered",
      "type": "event"
    },
    {
      "anonymous": false,
      "inputs": [
        {
          "indexed": true,
          "internalType": "uint256",
          "name": "matchId",
          "type": "uint256"
        }
      ],
      "name": "OrganPickedUpByNode",
      "type": "event"
    },
    {
      "anonymous": false,
      "inputs": [
        {
          "indexed": true,
          "internalType": "uint256",
          "name": "matchId",
          "type": "uint256"
        }
      ],
      "name": "OrganReadyForPickup",
      "type": "event"
    },
    {
      "anonymous": false,
      "inputs": [
        {
          "indexed": true,
          "internalType": "uint256",
          "name": "matchId",
          "type": "uint256"
        }
      ],
      "name": "OrganReceiptConfirmed",
      "type": "event"
    },
    {
      "anonymous": false,
      "inputs": [
        {
          "indexed": true,
          "internalType": "uint256",
          "name": "matchId",
          "type": "uint256"
        }
      ],
      "name": "PatientApproved",
      "type": "event"
    },
    {
      "anonymous": false,
      "inputs": [
        {
          "indexed": true,
          "internalType": "address",
          "name": "patient",
          "type": "address"
        },
        {
          "indexed": false,
          "internalType": "bytes32",
          "name": "organ",
          "type": "bytes32"
        },
        {
          "indexed": true,
          "internalType": "address",
          "name": "registeredBy",
          "type": "address"
        }
      ],
      "name": "PatientRegistered",
      "type": "event"
    },
    {
      "anonymous": false,
      "inputs": [
        {
          "indexed": true,
          "internalType": "uint256",
          "name": "matchId",
          "type": "uint256"
        }
      ],
      "name": "TransferMedicallyApproved",
      "type": "event"
    },
    {
      "anonymous": false,
      "inputs": [
        {
          "indexed": true,
          "internalType": "address",
          "name": "hospital",
          "type": "address"
        },
        {
          "indexed": false,
          "internalType": "uint256",
          "name": "numerator",
          "type": "uint256"
        },
        {
          "indexed": false,
          "internalType": "uint256",
          "name": "denominator",
          "type": "uint256"
        }
      ],
      "name": "TrustScoreUpdated",
      "type": "event"
    },
    {
      "anonymous": false,
      "inputs": [
        {
          "indexed": true,
          "internalType": "uint256",
          "name": "matchId",
          "type": "uint256"
        },
        {
          "indexed": true,
          "internalType": "address",
          "name": "voter",
          "type": "address"
        },
        {
          "indexed": false,
          "internalType": "bool",
          "name": "approved",
          "type": "bool"
        }
      ],
      "name": "VoteCast",
      "type": "event"
    },
    {
      "inputs": [],
      "name": "donorCounter",
      "outputs": [
        {
          "internalType": "uint256",
          "name": "",
          "type": "uint256"
        }
      ],
      "stateMutability": "view",
      "type": "function",
      "constant": true
    },
    {
      "inputs": [
        {
          "internalType": "uint256",
          "name": "",
          "type": "uint256"
        }
      ],
      "name": "donors",
      "outputs": [
        {
          "internalType": "uint256",
          "name": "id",
          "type": "uint256"
        },
        {
          "internalType": "address",
          "name": "registeredBy",
          "type": "address"
        },
        {
          "internalType": "uint8",
          "name": "bloodType",
          "type": "uint8"
        },
        {
          "internalType": "bytes32",
          "name": "organ",
          "type": "bytes32"
        },
        {
          "internalType": "enum OrganTransplant.Status",
          "name": "status",
          "type": "uint8"
        }
      ],
      "stateMutability": "view",
      "type": "function",
      "constant": true
    },
    {
      "inputs": [
        {
          "internalType": "uint256",
          "name": "",
          "type": "uint256"
        }
      ],
      "name": "hospitalAddresses",
      "outputs": [
        {
          "internalType": "address",
          "name": "",
          "type": "address"
        }
      ],
      "stateMutability": "view",
      "type": "function",
      "constant": true
    },
    {
      "inputs": [
        {
          "internalType": "uint256",
          "name": "",
          "type": "uint256"
        }
      ],
      "name": "hospitalProposalList",
      "outputs": [
        {
          "internalType": "address",
          "name": "",
          "type": "address"
        }
      ],
      "stateMutability": "view",
      "type": "function",
      "constant": true
    },
    {
      "inputs": [
        {
          "internalType": "address",
          "name": "",
          "type": "address"
        }
      ],
      "name": "hospitalProposals",
      "outputs": [
        {
          "internalType": "address",
          "name": "addr",
          "type": "address"
        },
        {
          "internalType": "uint256",
          "name": "yesVotes",
          "type": "uint256"
        },
        {
          "internalType": "bool",
          "name": "exists",
          "type": "bool"
        },
        {
          "internalType": "bool",
          "name": "completed",
          "type": "bool"
        }
      ],
      "stateMutability": "view",
      "type": "function",
      "constant": true
    },
    {
      "inputs": [
        {
          "internalType": "address",
          "name": "",
          "type": "address"
        }
      ],
      "name": "hospitals",
      "outputs": [
        {
          "internalType": "address",
          "name": "addr",
          "type": "address"
        },
        {
          "internalType": "bool",
          "name": "exists",
          "type": "bool"
        },
        {
          "internalType": "uint256",
          "name": "trustNumerator",
          "type": "uint256"
        },
        {
          "internalType": "uint256",
          "name": "trustDenominator",
          "type": "uint256"
        }
      ],
      "stateMutability": "view",
      "type": "function",
      "constant": true
    },
    {
      "inputs": [
        {
          "internalType": "uint256",
          "name": "",
          "type": "uint256"
        }
      ],
      "name": "logistics",
      "outputs": [
        {
          "internalType": "address",
          "name": "donorHospital",
          "type": "address"
        },
        {
          "internalType": "enum OrganTransplant.LogisticsStatus",
          "name": "status",
          "type": "uint8"
        },
        {
          "internalType": "address",
          "name": "recipientHospital",
          "type": "address"
        },
        {
          "internalType": "uint256",
          "name": "matchId",
          "type": "uint256"
        }
      ],
      "stateMutability": "view",
      "type": "function",
      "constant": true
    },
    {
      "inputs": [],
      "name": "matchCounter",
      "outputs": [
        {
          "internalType": "uint256",
          "name": "",
          "type": "uint256"
        }
      ],
      "stateMutability": "view",
      "type": "function",
      "constant": true
    },
    {
      "inputs": [
        {
          "internalType": "uint256",
          "name": "",
          "type": "uint256"
        }
      ],
      "name": "matches",
      "outputs": [
        {
          "internalType": "uint256",
          "name": "matchId",
          "type": "uint256"
        },
        {
          "internalType": "uint256",
          "name": "donorId",
          "type": "uint256"
        },
        {
          "internalType": "address",
          "name": "patient",
          "type": "address"
        },
        {
          "internalType": "uint256",
          "name": "yesVotes",
          "type": "uint256"
        },
        {
          "internalType": "bool",
          "name": "validationInitiated",
          "type": "bool"
        },
        {
          "internalType": "bool",
          "name": "completed",
          "type": "bool"
        }
      ],
      "stateMutability": "view",
      "type": "function",
      "constant": true
    },
    {
      "inputs": [],
      "name": "owner",
      "outputs": [
        {
          "internalType": "address",
          "name": "",
          "type": "address"
        }
      ],
      "stateMutability": "view",
      "type": "function",
      "constant": true
    },
    {
      "inputs": [
        {
          "internalType": "address",
          "name": "",
          "type": "address"
        }
      ],
      "name": "patients",
      "outputs": [
        {
          "internalType": "address",
          "name": "addr",
          "type": "address"
        },
        {
          "internalType": "uint8",
          "name": "bloodType",
          "type": "uint8"
        },
        {
          "internalType": "bytes32",
          "name": "organNeeded",
          "type": "bytes32"
        },
        {
          "internalType": "enum OrganTransplant.Status",
          "name": "status",
          "type": "uint8"
        },
        {
          "internalType": "address",
          "name": "registeredBy",
          "type": "address"
        }
      ],
      "stateMutability": "view",
      "type": "function",
      "constant": true
    },
    {
      "inputs": [],
      "name": "transactionNode",
      "outputs": [
        {
          "internalType": "address",
          "name": "",
          "type": "address"
        }
      ],
      "stateMutability": "view",
      "type": "function",
      "constant": true
    },
    {
      "inputs": [
        {
          "internalType": "address",
          "name": "_newHospital",
          "type": "address"
        }
      ],
      "name": "proposeHospital",
      "outputs": [],
      "stateMutability": "nonpayable",
      "type": "function"
    },
    {
      "inputs": [
        {
          "internalType": "address",
          "name": "_newHospital",
          "type": "address"
        },
        {
          "internalType": "bool",
          "name": "_approve",
          "type": "bool"
        }
      ],
      "name": "voteOnHospital",
      "outputs": [],
      "stateMutability": "nonpayable",
      "type": "function"
    },
    {
      "inputs": [
        {
          "internalType": "address",
          "name": "_proposalAddr",
          "type": "address"
        },
        {
          "internalType": "address",
          "name": "_hospitalAddr",
          "type": "address"
        }
      ],
      "name": "getProposalVoteStatus",
      "outputs": [
        {
          "internalType": "bool",
          "name": "",
          "type": "bool"
        }
      ],
      "stateMutability": "view",
      "type": "function",
      "constant": true
    },
    {
      "inputs": [
        {
          "internalType": "address",
          "name": "_patient",
          "type": "address"
        },
        {
          "internalType": "uint8",
          "name": "_bloodType",
          "type": "uint8"
        },
        {
          "internalType": "bytes32",
          "name": "_organNeeded",
          "type": "bytes32"
        }
      ],
      "name": "registerPatient",
      "outputs": [],
      "stateMutability": "nonpayable",
      "type": "function"
    },
    {
      "inputs": [
        {
          "internalType": "uint8",
          "name": "_bloodType",
          "type": "uint8"
        },
        {
          "internalType": "bytes32",
          "name": "_organ",
          "type": "bytes32"
        }
      ],
      "name": "registerDonor",
      "outputs": [],
      "stateMutability": "nonpayable",
      "type": "function"
    },
    {
      "inputs": [
        {
          "internalType": "uint256",
          "name": "_donorId",
          "type": "uint256"
        },
        {
          "internalType": "address",
          "name": "_patient",
          "type": "address"
        }
      ],
      "name": "createMatch",
      "outputs": [],
      "stateMutability": "nonpayable",
      "type": "function"
    },
    {
      "inputs": [
        {
          "internalType": "uint256",
          "name": "_matchId",
          "type": "uint256"
        }
      ],
      "name": "patientPreApprove",
      "outputs": [],
      "stateMutability": "nonpayable",
      "type": "function"
    },
    {
      "inputs": [
        {
          "internalType": "uint256",
          "name": "_matchId",
          "type": "uint256"
        },
        {
          "internalType": "bool",
          "name": "_approve",
          "type": "bool"
        }
      ],
      "name": "initiateAndVote",
      "outputs": [],
      "stateMutability": "nonpayable",
      "type": "function"
    },
    {
      "inputs": [
        {
          "internalType": "uint256",
          "name": "_matchId",
          "type": "uint256"
        }
      ],
      "name": "patientAccept",
      "outputs": [],
      "stateMutability": "nonpayable",
      "type": "function"
    },
    {
      "inputs": [
        {
          "internalType": "uint256",
          "name": "_matchId",
          "type": "uint256"
        }
      ],
      "name": "donorHospitalConfirmReady",
      "outputs": [],
      "stateMutability": "nonpayable",
      "type": "function"
    },
    {
      "inputs": [
        {
          "internalType": "uint256",
          "name": "_matchId",
          "type": "uint256"
        }
      ],
      "name": "transactionNodeConfirmPickup",
      "outputs": [],
      "stateMutability": "nonpayable",
      "type": "function"
    },
    {
      "inputs": [
        {
          "internalType": "uint256",
          "name": "_matchId",
          "type": "uint256"
        }
      ],
      "name": "donorHospitalConfirmNodePickup",
      "outputs": [],
      "stateMutability": "nonpayable",
      "type": "function"
    },
    {
      "inputs": [
        {
          "internalType": "uint256",
          "name": "_matchId",
          "type": "uint256"
        }
      ],
      "name": "transactionNodeConfirmDelivery",
      "outputs": [],
      "stateMutability": "nonpayable",
      "type": "function"
    },
    {
      "inputs": [
        {
          "internalType": "uint256",
          "name": "_matchId",
          "type": "uint256"
        }
      ],
      "name": "recipientHospitalConfirmReceipt",
      "outputs": [],
      "stateMutability": "nonpayable",
      "type": "function"
    },
    {
      "inputs": [
        {
          "internalType": "uint256",
          "name": "_matchId",
          "type": "uint256"
        }
      ],
      "name": "recipientHospitalRejectDelivery",
      "outputs": [],
      "stateMutability": "nonpayable",
      "type": "function"
    },
    {
      "inputs": [
        {
          "internalType": "uint256",
          "name": "_matchId",
          "type": "uint256"
        },
        {
          "internalType": "address",
          "name": "_hospital",
          "type": "address"
        }
      ],
      "name": "hasHospitalVoted",
      "outputs": [
        {
          "internalType": "bool",
          "name": "",
          "type": "bool"
        }
      ],
      "stateMutability": "view",
      "type": "function",
      "constant": true
    },
    {
      "inputs": [],
      "name": "getDonorCount",
      "outputs": [
        {
          "internalType": "uint256",
          "name": "",
          "type": "uint256"
        }
      ],
      "stateMutability": "view",
      "type": "function",
      "constant": true
    },
    {
      "inputs": [],
      "name": "getHospitalCount",
      "outputs": [
        {
          "internalType": "uint256",
          "name": "",
          "type": "uint256"
        }
      ],
      "stateMutability": "view",
      "type": "function",
      "constant": true
    },
    {
      "inputs": [],
      "name": "getPendingProposals",
      "outputs": [
        {
          "internalType": "address[]",
          "name": "",
          "type": "address[]"
        }
      ],
      "stateMutability": "view",
      "type": "function",
      "constant": true
    }
  ],
  "bytecode": "0x60806040523480156200001157600080fd5b50604051620028a9380380620028a9833981810160405260408110156200003757600080fd5b8151602083018051604051929492938301929190846401000000008211156200005f57600080fd5b9083019060208201858111156200007557600080fd5b82518660208202830111640100000000821117156200009357600080fd5b82525081516020918201928201910280838360005b83811015620000c2578181015183820152602001620000a8565b5050505091909101604052505060008054336001600160a01b0319918216178255600180549091166001600160a01b0387161790559150505b81518110156200029b5760006001600160a01b03168282815181106200011d57fe5b60200260200101516001600160a01b0316141562000182576040805162461bcd60e51b815260206004820152601860248201527f496e76616c696420686f73706974616c20616464726573730000000000000000604482015290519081900360640190fd5b60028282815181106200019157fe5b60209081029190910181015182546001810184556000938452919092200180546001600160a01b0319166001600160a01b03909216919091179055604080516080810190915282518190849084908110620001e857fe5b60200260200101516001600160a01b03168152602001600115158152602001600a8152602001600a815250600460008484815181106200022457fe5b6020908102919091018101516001600160a01b03908116835282820193909352604091820160002084518154928601516001600160a01b031990931694169390931760ff60a01b1916600160a01b9115159190910217825582015160018083019190915560609092015160029091015501620000fb565b5050506125fb80620002ae6000396000f3fe608060405234801561001057600080fd5b50600436106101e55760003560e01c80637360e9ca1161010f578063a3a4eee4116100a2578063cffbf2f811610071578063cffbf2f8146106d6578063d9ad230014610704578063f093cf8014610721578063fe45a81d14610777576101e5565b8063a3a4eee41461062b578063a80db6fc14610648578063aa35cef9146106a0578063adb9252b146106ce576101e5565b806391bca4dc116100de57806391bca4dc14610566578063951131911461058c578063965dc338146105a95780639d12d01c146105c6576101e5565b80637360e9ca146105075780637e3e139814610524578063809257d4146105415780638da5cb5b1461055e576101e5565b806344b855d811610187578063638f2e9011610156578063638f2e901461045e57806369bc2f1e1461047b5780636cd664ef14610483578063731cdb0c146104db576101e5565b806344b855d81461035b5780634768d4ef146103785780634abfa163146103d45780635f1ffd751461043a576101e5565b80630c5c3ecf116101c35780630c5c3ecf146102b35780630d3e0dce146102d957806324b105b1146102f65780632cd989701461031b576101e5565b806301fd1951146101ea578063078e0df3146102045780630869cfbc1461023b575b600080fd5b6101f261077f565b60408051918252519081900360200190f35b6102396004803603606081101561021a57600080fd5b506001600160a01b038135169060ff6020820135169060400135610785565b005b6102616004803603602081101561025157600080fd5b50356001600160a01b0316610951565b60405180866001600160a01b031681526020018560ff16815260200184815260200183600481111561028f57fe5b8152602001826001600160a01b031681526020019550505050505060405180910390f35b610239600480360360208110156102c957600080fd5b50356001600160a01b0316610995565b610239600480360360208110156102ef57600080fd5b5035610bbf565b6102396004803603604081101561030c57600080fd5b50803590602001351515610cc9565b6103476004803603604081101561033157600080fd5b50803590602001356001600160a01b0316610e98565b604080519115158252519081900360200190f35b6102396004803603602081101561037157600080fd5b5035610ec9565b6103956004803603602081101561038e57600080fd5b5035611090565b6040805196875260208701959095526001600160a01b0390931685850152606085019190915215156080840152151560a0830152519081900360c00190f35b6103f1600480360360208110156103ea57600080fd5b50356110d5565b60405180868152602001856001600160a01b031681526020018460ff16815260200183815260200182600481111561042557fe5b81526020019550505050505060405180910390f35b610442611113565b604080516001600160a01b039092168252519081900360200190f35b6102396004803603602081101561047457600080fd5b5035611122565b6101f2611277565b6104a96004803603602081101561049957600080fd5b50356001600160a01b031661127d565b604080516001600160a01b03909516855260208501939093529015158383015215156060830152519081900360800190f35b610239600480360360408110156104f157600080fd5b50803590602001356001600160a01b03166112b4565b6102396004803603602081101561051d57600080fd5b503561150b565b6102396004803603602081101561053a57600080fd5b503561167d565b6104426004803603602081101561055757600080fd5b503561198f565b6104426119b6565b6102396004803603604081101561057c57600080fd5b5060ff81351690602001356119c5565b610239600480360360208110156105a257600080fd5b5035611b11565b610239600480360360208110156105bf57600080fd5b5035611c7c565b6105e3600480360360208110156105dc57600080fd5b5035611d80565b60405180856001600160a01b0316815260200184600781111561060257fe5b8152602001836001600160a01b0316815260200182815260200194505050505060405180910390f35b6102396004803603602081101561064157600080fd5b5035611db8565b610650611ed8565b60408051602080825283518183015283519192839290830191858101910280838360005b8381101561068c578181015183820152602001610674565b505050509050019250505060405180910390f35b610239600480360360408110156106b657600080fd5b506001600160a01b0381351690602001351515612017565b6101f261230e565b610347600480360360408110156106ec57600080fd5b506001600160a01b0381358116916020013516612314565b6104426004803603602081101561071a57600080fd5b5035612346565b6107476004803603602081101561073757600080fd5b50356001600160a01b0316612353565b604080516001600160a01b0390951685529215156020850152838301919091526060830152519081900360800190f35b6101f2612389565b600b5481565b33600090815260046020526040902054600160a01b900460ff166107de576040805162461bcd60e51b815260206004820152601960248201526000805160206125a6833981519152604482015290519081900360640190fd5b6001600160a01b038381166000908152600560205260409020541615610844576040805162461bcd60e51b815260206004820152601660248201527550617469656e7420616c72656164792065786973747360501b604482015290519081900360640190fd5b6040805160a0810182526001600160a01b0385811680835260ff86811660208086019182528587018881526000606088018181523360808a015295815260059092529690208551815492516001600160a01b031990931695169490941760ff60a01b1916600160a01b919092160217825592516001808301919091559251600282018054939492939192909160ff1916908360048111156108e157fe5b021790555060809190910151600290910180546001600160a01b0392831661010002610100600160a81b031990911617905560408051838152905133928616917ff67e72d5d4ae82e4047c5c6b041d419b1cd503531c7c0a965e48e85253bc31f0919081900360200190a3505050565b6005602052600090815260409020805460018201546002909201546001600160a01b038083169360ff600160a01b9094048416939092908116916101009091041685565b6000546001600160a01b031633146109e1576040805162461bcd60e51b815260206004820152600a60248201526927b7363c9037bbb732b960b11b604482015290519081900360640190fd5b6001600160a01b038116610a2e576040805162461bcd60e51b815260206004820152600f60248201526e496e76616c6964206164647265737360881b604482015290519081900360640190fd5b6001600160a01b038116600090815260046020526040902054600160a01b900460ff1615610aa3576040805162461bcd60e51b815260206004820152601b60248201527f486f73706974616c20616c726561647920726567697374657265640000000000604482015290519081900360640190fd5b6001600160a01b03811660009081526009602052604090206003015460ff1615610b14576040805162461bcd60e51b815260206004820152601860248201527f50726f706f73616c20616c72656164792070656e64696e670000000000000000604482015290519081900360640190fd5b6001600160a01b03811660008181526009602052604080822080546001600160a01b03199081168517825560018083018590556003808401805460ff1916831761ff00191690558054918201815585527fc2575a0e9e593c00f959f8c92f12db2869c3395a3b0502d05e2516446f71f85b0180549091168517905590519092339290917fd0fb758be5f8f52bee25fb1775542ebed79d2b6678044a6f9145196e37dc97f49190a35050565b6001546001600160a01b03163314610c19576040805162461bcd60e51b81526020600482015260186024820152774e6f7420746865207472616e73616374696f6e206e6f646560401b604482015290519081900360640190fd5b600081815260086020526040902060028154600160a01b900460ff166007811115610c4057fe5b14610c89576040805162461bcd60e51b815260206004820152601460248201527304e6f7420726561647920666f72207069636b75760641b604482015290519081900360640190fd5b805460ff60a01b1916600360a01b17815560405182907f18c7a760c9766f378cda3a62284a981780e4fc874ee646030da7a6dd367da78e90600090a25050565b33600090815260046020526040902054600160a01b900460ff16610d22576040805162461bcd60e51b815260206004820152601960248201526000805160206125a6833981519152604482015290519081900360640190fd5b6000828152600760205260409020600280808301546001600160a01b03166000908152600560205260409020015460ff166004811115610d5e57fe5b14610db0576040805162461bcd60e51b815260206004820152601c60248201527f50617469656e7420686173206e6f74207072652d617070726f76656400000000604482015290519081900360640190fd5b33600090815260048201602052604090205460ff1615610e07576040805162461bcd60e51b815260206004820152600d60248201526c105b1c9958591e481d9bdd1959609a1b604482015290519081900360640190fd5b60058101805460ff1916600117905581610e22576002610e25565b60015b3360009081526004830160205260409020805460ff191660ff929092169190911790558115610e5a5760038101805460010190555b6040805183151581529051339185917fe71fcdac32df1877c1700e7bda2a03157e20993363a28fc35ac495cefc76e4d49181900360200190a3505050565b60008281526007602090815260408083206001600160a01b038516845260040190915290205460ff16151592915050565b33600090815260046020526040902054600160a01b900460ff16610f22576040805162461bcd60e51b815260206004820152601960248201526000805160206125a6833981519152604482015290519081900360640190fd5b600081815260086020526040902060058154600160a01b900460ff166007811115610f4957fe5b14610f8f576040805162461bcd60e51b8152602060048201526011602482015270139bdd081e595d0819195b1a5d995c9959607a1b604482015290519081900360640190fd5b60018101546001600160a01b03163314610ff0576040805162461bcd60e51b815260206004820152601c60248201527f4e6f742074686520726563697069656e74277320686f73706974616c00000000604482015290519081900360640190fd5b805460ff60a01b1916600360a11b17815560008281526007602090815260408083206002808201546001600160a01b0316855260058452828520018054600460ff1991821681179092556001928301548652600690945291909320600301805490921617905561106190839061238f565b60405182907fb956ae88fca28d9d9dcdd1bee79b1ff30d51264e617736cd7022c14e2e51753890600090a25050565b60076020526000908152604090208054600182015460028301546003840154600590940154929391926001600160a01b03909116919060ff8082169161010090041686565b600660205260009081526040902080546001820154600283015460039093015491926001600160a01b0382169260ff600160a01b9093048316921685565b6001546001600160a01b031681565b33600090815260046020526040902054600160a01b900460ff1661117b576040805162461bcd60e51b815260206004820152601960248201526000805160206125a6833981519152604482015290519081900360640190fd5b600081815260086020526040902060038154600160a01b900460ff1660078111156111a257fe5b146111de5760405162461bcd60e51b81526004018080602001828103825260218152602001806125856021913960400191505060405180910390fd5b80546001600160a01b03163314611237576040805162461bcd60e51b8152602060048201526018602482015277139bdd081d1a1948191bdb9bdc89dcc81a1bdcdc1a5d185b60421b604482015290519081900360640190fd5b805460ff60a01b1916600160a21b17815560405182907fd58e310cc5adedd5215c287a1e5a54bfab779a009d235c1a31c5b75125ca310090600090a25050565b600a5490565b6009602052600090815260409020805460018201546003909201546001600160a01b03909116919060ff8082169161010090041684565b33600090815260046020526040902054600160a01b900460ff1661130d576040805162461bcd60e51b815260206004820152601960248201526000805160206125a6833981519152604482015290519081900360640190fd5b60008281526006602052604081206003015460ff16600481111561132d57fe5b14611375576040805162461bcd60e51b8152602060048201526013602482015272446f6e6f72206e6f7420617661696c61626c6560681b604482015290519081900360640190fd5b6001600160a01b03811660009081526005602052604081206002015460ff16600481111561139f57fe5b146113e9576040805162461bcd60e51b815260206004820152601560248201527450617469656e74206e6f7420617661696c61626c6560581b604482015290519081900360640190fd5b6001600160a01b0381166000908152600560209081526040808320600101548584526006909252909120600201541461145f576040805162461bcd60e51b815260206004820152601360248201527209ee4cec2dc40e8f2e0ca40dad2e6dac2e8c6d606b1b604482015290519081900360640190fd5b600b805460019081018083556000818152600760209081526040808320938455838501889055600280850180546001600160a01b0319166001600160a01b038a1690811790915589855260068452828520600301805460ff19908116891790915581865260059094528285209091018054909316909517909155935493519193869290917f65fa593f19a0944119fc97e9b7a44258e9b1e3890e2ae7438bae33533237213a91a4505050565b33600090815260046020526040902054600160a01b900460ff16611564576040805162461bcd60e51b815260206004820152601960248201526000805160206125a6833981519152604482015290519081900360640190fd5b600081815260086020526040902060058154600160a01b900460ff16600781111561158b57fe5b146115d1576040805162461bcd60e51b8152602060048201526011602482015270139bdd081e595d0819195b1a5d995c9959607a1b604482015290519081900360640190fd5b60018101546001600160a01b03163314611632576040805162461bcd60e51b815260206004820152601c60248201527f4e6f742074686520726563697069656e74277320686f73706974616c00000000604482015290519081900360640190fd5b805460ff60a01b1916600760a01b17815561164e82600061238f565b60405182907f08c9bbe850a7ed57097d329dbc99a04797ba4131932abe9a3ab6591f399e7b0290600090a25050565b600081815260076020526040902060028101546001600160a01b031633146116de576040805162461bcd60e51b815260206004820152600f60248201526e139bdd081d1a19481c185d1a595b9d608a1b604482015290519081900360640190fd5b6005810154610100900460ff161561173d576040805162461bcd60e51b815260206004820152601a60248201527f5472616e7366657220616c726561647920636f6d706c65746564000000000000604482015290519081900360640190fd5b6002546003820154158015906117535750600081115b6117a4576040805162461bcd60e51b815260206004820152601860248201527f4e6f20766f746573206f72206e6f20686f73706974616c730000000000000000604482015290519081900360640190fd5b80600202826003015460030210156117f8576040805162461bcd60e51b8152602060048201526012602482015271496e73756666696369656e7420766f74657360701b604482015290519081900360640190fd5b6005828101805461ff001916610100908117909155600280850180546001600160a01b0390811660009081526020868152604080832086018054600360ff1991821681179092556001808d01805487526006865284872084018054909316909317909155905484528184208101549554851684529782528083209095015485516080810187529484168086528583019889529690048316848601819052606085018b90528a83526008909152939020825181546001600160a01b0319169216919091178082559451939492939192909190829060ff60a01b1916600160a01b8360078111156118e357fe5b02179055506040828101516001830180546001600160a01b0319166001600160a01b039092169190911790556060909201516002909101555185907fd2fa0d0b05dcfd48793dc043150afbb3d9739fc1b2b68897c1a512c633f435b290600090a2604080516001600160a01b03808516825283166020820152815187927fe319c6d986201453297e773336847c234739290f8c28acd15a5522652da44fc5928290030190a25050505050565b6003818154811061199c57fe5b6000918252602090912001546001600160a01b0316905081565b6000546001600160a01b031681565b33600090815260046020526040902054600160a01b900460ff16611a1e576040805162461bcd60e51b815260206004820152601960248201526000805160206125a6833981519152604482015290519081900360640190fd5b600a80546001908101918290556040805160a08101825283815233602080830191825260ff8881168486019081526060850189815260006080870181815299815260069094529590922084518155925183870180549351909216600160a01b0260ff60a01b196001600160a01b039092166001600160a01b0319909416939093171691909117905591516002830155925160038201805492939192909160ff1990911690836004811115611ace57fe5b021790555050600a546040805184815290513393507f802d5d45113c85532f3190548c9af66666bc00d172fd1b50576c6623651062979181900360200190a35050565b33600090815260046020526040902054600160a01b900460ff16611b6a576040805162461bcd60e51b815260206004820152601960248201526000805160206125a6833981519152604482015290519081900360640190fd5b600081815260086020526040902060018154600160a01b900460ff166007811115611b9157fe5b14611be3576040805162461bcd60e51b815260206004820152601c60248201527f4e6f74206177616974696e67207069636b757020617070726f76616c00000000604482015290519081900360640190fd5b80546001600160a01b03163314611c3c576040805162461bcd60e51b8152602060048201526018602482015277139bdd081d1a1948191bdb9bdc89dcc81a1bdcdc1a5d185b60421b604482015290519081900360640190fd5b805460ff60a01b1916600160a11b17815560405182907fa9e50875ee03e520f082b57459696f5d5bb8160765aafdb30181b737d6e4d04f90600090a25050565b6001546001600160a01b03163314611cd6576040805162461bcd60e51b81526020600482015260186024820152774e6f7420746865207472616e73616374696f6e206e6f646560401b604482015290519081900360640190fd5b600081815260086020526040902060048154600160a01b900460ff166007811115611cfd57fe5b14611d40576040805162461bcd60e51b815260206004820152600e60248201526d139bdd081a5b881d1c985b9cda5d60921b604482015290519081900360640190fd5b805460ff60a01b1916600560a01b17815560405182907fc74221aa7e08e4cd75656f5462ae41576f47aa979ed216a28bef93f71575256f90600090a25050565b6008602052600090815260409020805460018201546002909201546001600160a01b0380831693600160a01b90930460ff1692169084565b600081815260076020526040902060028101546001600160a01b03163314611e19576040805162461bcd60e51b815260206004820152600f60248201526e139bdd081d1a19481c185d1a595b9d608a1b604482015290519081900360640190fd5b60013360009081526005602052604090206002015460ff166004811115611e3c57fe5b14611e8e576040805162461bcd60e51b815260206004820152601a60248201527f4d61746368206e6f7420696e20636f7272656374207374617465000000000000604482015290519081900360640190fd5b336000908152600560205260408082206002908101805460ff191690911790555183917f8b7b32db4b7efa87ea003d5d341a37046f703fd46583ca501df1786e776294f891a25050565b60606000805b600354811015611f3d576009600060038381548110611ef957fe5b60009182526020808320909101546001600160a01b0316835282019290925260400190206003015460ff61010090910416611f35576001909101905b600101611ede565b5060608167ffffffffffffffff81118015611f5757600080fd5b50604051908082528060200260200182016040528015611f81578160200160208202803683370190505b5090506000805b60035481101561200e57600060038281548110611fa157fe5b60009182526020808320909101546001600160a01b0316808352600990915260409091206003015490915060ff610100909104166120055780848481518110611fe657fe5b6001600160a01b03909216602092830291909101909101526001909201915b50600101611f88565b50909250505090565b33600090815260046020526040902054600160a01b900460ff16612070576040805162461bcd60e51b815260206004820152601960248201526000805160206125a6833981519152604482015290519081900360640190fd5b6001600160a01b0382166000908152600960205260409020600381015460ff166120e1576040805162461bcd60e51b815260206004820152601c60248201527f4e6f2070726f706f73616c20666f722074686973206164647265737300000000604482015290519081900360640190fd5b6003810154610100900460ff1615612139576040805162461bcd60e51b8152602060048201526016602482015275159bdd1948185b1c9958591e4818dbdb5c1b195d195960521b604482015290519081900360640190fd5b33600090815260028201602052604090205460ff1615612199576040805162461bcd60e51b8152602060048201526016602482015275121bdcdc1a5d185b08185b1c9958591e481d9bdd195960521b604482015290519081900360640190fd5b3360009081526002820160205260409020805460ff1916600117905581156121c8576001808201805490910190555b604080518315158152905133916001600160a01b038616917ffe7bd23bccece2a52eba1bba5a8c0addad648953bd1da9c066bfc62ed3672c599181900360200190a3600280546001830154909182026003909102106123085760038201805461ff001916610100179055604080516080810182526001600160a01b03808716808352600160208085018281526005868801908152600a60608801908152600086815260049094528884209751885493511515600160a01b0260ff60a01b19919098166001600160a01b0319948516171696909617875551868401559351600295860155845491820185559384527f405787fa12a823e0f2b7631cc41b3ba8828b3321ca811111fa75cd3aa3bb5ace018054909216811790915591517f98b422b4248851ae9e727f5fd491b255462f5872bd0493c1ddf7308ccedfa1a29190a25b50505050565b600a5481565b6001600160a01b0391821660009081526009602090815260408083209390941682526002909201909152205460ff1690565b6002818154811061199c57fe5b6004602052600090815260409020805460018201546002909201546001600160a01b03821692600160a01b90920460ff16919084565b60025490565b6000828152600760205260408120905b600254811015612308576000600282815481106123b857fe5b60009182526020808320909101546001600160a01b03168083526004860190915260409091205490915060ff1660018114156124b0578415612428576001600160a01b0382166000908152600460205260409020600180820180548201905560029091018054909101905561244b565b6001600160a01b0382166000908152600460205260409020600201805460010190555b6001600160a01b038216600081815260046020908152604091829020600181015460029091015483519182529181019190915281517f15dd57e0cde9af9083c846eb39c9da382e907c0036818e4a163ecd167e5f3276929181900390910190a261257a565b8060ff166002141561257a5784156124e9576001600160a01b038216600090815260046020526040902060020180546001019055612519565b6001600160a01b038216600090815260046020526040902060018082018054820190556002909101805490910190555b6001600160a01b038216600081815260046020908152604091829020600181015460029091015483519182529181019190915281517f15dd57e0cde9af9083c846eb39c9da382e907c0036818e4a163ecd167e5f3276929181900390910190a25b505060010161239f56fe4e6f646520686173206e6f7420636f6e6669726d6564207069636b7570207965744e6f742061207265676973746572656420686f73706974616c00000000000000a2646970667358221220d8781f612566b0cb464c97826465a68fdefa43ea188083eb8536b22142336bd064736f6c63430007030033",
  "immutableReferences": {},
  "source": "// SPDX-License-Identifier: MIT\r\npragma solidity ^0.7.3;\r\n\r\ncontract OrganTransplant {\r\n    // --- Enums ---\r\n    enum Status { Waiting, Matched, PatientApproved, MedicallyApproved, Completed }\r\n    \r\n    enum LogisticsStatus {\r\n        Inactive,\r\n        AwaitingPickupApproval,\r\n        ReadyForPickup,\r\n        AwaitingPickupConfirmation,\r\n        InTransit,\r\n        Delivered,\r\n        ConfirmedByRecipient,\r\n        DeliveryRejected\r\n    }\r\n\r\n    // --- Structs ---\r\n    struct Hospital { \r\n        address addr; \r\n        bool exists;\r\n        uint trustNumerator;   // NEW: For trust score\r\n        uint trustDenominator; // NEW: For trust score\r\n    }\r\n    \r\n    struct Patient { \r\n        address addr; \r\n        uint8 bloodType; \r\n        bytes32 organNeeded; \r\n        Status status; \r\n        address registeredBy; \r\n    }\r\n    \r\n    struct Donor { \r\n        uint256 id; \r\n        address registeredBy; \r\n        uint8 bloodType; \r\n        bytes32 organ; \r\n        Status status; \r\n    }\r\n    \r\n    struct Match { \r\n        uint256 matchId; \r\n        uint256 donorId; \r\n        address patient; \r\n        uint256 yesVotes; \r\n        // MODIFIED: Store the actual vote (0=NotVoted, 1=Yes, 2=No)\r\n        mapping(address => uint8) vote; \r\n        bool validationInitiated; \r\n        bool completed; \r\n    }\r\n    \r\n    struct Logistics { \r\n        address donorHospital;\r\n        LogisticsStatus status;\r\n        address recipientHospital;\r\n        uint256 matchId;\r\n    }\r\n\r\n    // NEW: Struct for proposing new hospitals\r\n    struct HospitalProposal {\r\n        address addr;\r\n        uint yesVotes;\r\n        mapping(address => bool) voted;\r\n        bool exists;\r\n        bool completed;\r\n    }\r\n    \r\n    // --- State Variables ---\r\n    address public owner;\r\n    address public transactionNode;\r\n    address[] public hospitalAddresses;\r\n    address[] public hospitalProposalList; // NEW: To iterate proposals\r\n\r\n    mapping(address => Hospital) public hospitals;\r\n    mapping(address => Patient) public patients;\r\n    mapping(uint256 => Donor) public donors;\r\n    mapping(uint256 => Match) public matches;\r\n    mapping(uint256 => Logistics) public logistics;\r\n    mapping(address => HospitalProposal) public hospitalProposals; // NEW\r\n    \r\n    uint256 public donorCounter;\r\n    uint256 public matchCounter;\r\n\r\n    // --- Events ---\r\n    event PatientRegistered(address indexed patient, bytes32 organ, address indexed registeredBy);\r\n    event DonorRegistered(uint256 indexed donorId, bytes32 organ, address indexed registeredBy);\r\n    event MatchCreated(uint256 indexed matchId, uint256 indexed donorId, address indexed patient);\r\n    event PatientApproved(uint256 indexed matchId);\r\n    event VoteCast(uint256 indexed matchId, address indexed voter, bool approved);\r\n    event TransferMedicallyApproved(uint256 indexed matchId);\r\n    event LogisticsInitiated(uint256 indexed matchId, address donorHospital, address recipientHospital);\r\n    event OrganReadyForPickup(uint256 indexed matchId);\r\n    event OrganPickedUpByNode(uint256 indexed matchId);\r\n    event NodePickupConfirmedByHospital(uint256 indexed matchId);\r\n    event OrganDelivered(uint256 indexed matchId);\r\n    event OrganReceiptConfirmed(uint256 indexed matchId);\r\n    event DeliveryRejected(uint256 indexed matchId);\r\n    event HospitalProposed(address indexed newHospital, address indexed proposedBy); // NEW\r\n    event HospitalVoteCast(address indexed newHospital, address indexed voter, bool approved); // NEW\r\n    event HospitalAdded(address indexed newHospital); // NEW\r\n    event TrustScoreUpdated(address indexed hospital, uint numerator, uint denominator); // NEW\r\n\r\n    // --- Constructor ---\r\n    constructor(address _transactionNode, address[] memory _hospitals) {\r\n        owner = msg.sender;\r\n        transactionNode = _transactionNode;\r\n        for (uint i = 0; i < _hospitals.length; i++) {\r\n            require(_hospitals[i] != address(0), \"Invalid hospital address\");\r\n            hospitalAddresses.push(_hospitals[i]);\r\n            // NEW: Initial hospitals start with a 10/10 trust score\r\n            hospitals[_hospitals[i]] = Hospital(_hospitals[i], true, 10, 10); \r\n        }\r\n    }\r\n    \r\n    // --- Modifiers ---\r\n    modifier onlyOwner() { require(msg.sender == owner, \"Only owner\"); _; }\r\n    modifier onlyHospital() { require(hospitals[msg.sender].exists, \"Not a registered hospital\"); _; }\r\n    modifier onlyTransactionNode() { require(msg.sender == transactionNode, \"Not the transaction node\"); _; }\r\n\r\n    // --- Hospital Management (NEW) ---\r\n\r\n    function proposeHospital(address _newHospital) public onlyOwner {\r\n        require(_newHospital != address(0), \"Invalid address\");\r\n        require(!hospitals[_newHospital].exists, \"Hospital already registered\");\r\n        require(!hospitalProposals[_newHospital].exists, \"Proposal already pending\");\r\n\r\n        // --- THIS IS THE FIX ---\r\n        // Get a storage pointer to the new proposal slot\r\n        HospitalProposal storage newProposal = hospitalProposals[_newHospital];\r\n\r\n        // Initialize its members individually\r\n        newProposal.addr = _newHospital;\r\n        newProposal.yesVotes = 0;\r\n        newProposal.exists = true;\r\n        newProposal.completed = false;\r\n        // The 'voted' mapping is automatically empty, so no need to set it.\r\n        // --- END OF FIX ---\r\n\r\n        hospitalProposalList.push(_newHospital);\r\n        emit HospitalProposed(_newHospital, msg.sender);\r\n    }\r\n\r\n    function voteOnHospital(address _newHospital, bool _approve) public onlyHospital {\r\n        HospitalProposal storage proposal = hospitalProposals[_newHospital];\r\n        require(proposal.exists, \"No proposal for this address\");\r\n        require(!proposal.completed, \"Vote already completed\");\r\n        require(!proposal.voted[msg.sender], \"Hospital already voted\");\r\n\r\n        proposal.voted[msg.sender] = true;\r\n        if (_approve) {\r\n            proposal.yesVotes++;\r\n        }\r\n        emit HospitalVoteCast(_newHospital, msg.sender, _approve);\r\n\r\n        // Check for 2/3rds majority to approve\r\n        uint totalHospitals = hospitalAddresses.length;\r\n        if (proposal.yesVotes * 3 >= totalHospitals * 2) {\r\n            proposal.completed = true;\r\n            // NEW: Add new hospital with 5/10 \"probationary\" score\r\n            hospitals[_newHospital] = Hospital(_newHospital, true, 5, 10);\r\n            hospitalAddresses.push(_newHospital);\r\n            emit HospitalAdded(_newHospital);\r\n        }\r\n    }\r\n    // --- Getter Functions ---\r\n\r\n    // NEW: Getter for hospital proposal voting status\r\n    function getProposalVoteStatus(address _proposalAddr, address _hospitalAddr) public view returns (bool) {\r\n        return hospitalProposals[_proposalAddr].voted[_hospitalAddr];\r\n    }\r\n    \r\n    \r\n    // --- Registration Functions ---\r\n    \r\n    function registerPatient(address _patient, uint8 _bloodType, bytes32 _organNeeded) public onlyHospital {\r\n        require(patients[_patient].addr == address(0), \"Patient already exists\");\r\n        patients[_patient] = Patient(_patient, _bloodType, _organNeeded, Status.Waiting, msg.sender);\r\n        emit PatientRegistered(_patient, _organNeeded, msg.sender);\r\n    }\r\n    \r\n    function registerDonor(uint8 _bloodType, bytes32 _organ) public onlyHospital {\r\n        donorCounter++;\r\n        donors[donorCounter] = Donor(donorCounter, msg.sender, _bloodType, _organ, Status.Waiting);\r\n        emit DonorRegistered(donorCounter, _organ, msg.sender);\r\n    }\r\n\r\n    // --- Match & Vote Logic ---\r\n\r\n    function createMatch(uint256 _donorId, address _patient) public onlyHospital {\r\n        require(donors[_donorId].status == Status.Waiting, \"Donor not available\");\r\n        require(patients[_patient].status == Status.Waiting, \"Patient not available\");\r\n        require(donors[_donorId].organ == patients[_patient].organNeeded, \"Organ type mismatch\");\r\n\r\n        matchCounter++;\r\n        Match storage newMatch = matches[matchCounter];\r\n        newMatch.matchId = matchCounter;\r\n        newMatch.donorId = _donorId;\r\n        newMatch.patient = _patient;\r\n        donors[_donorId].status = Status.Matched;\r\n        patients[_patient].status = Status.Matched;\r\n        emit MatchCreated(matchCounter, _donorId, _patient);\r\n    }\r\n\r\n    function patientPreApprove(uint256 _matchId) public {\r\n        Match storage currentMatch = matches[_matchId];\r\n        require(msg.sender == currentMatch.patient, \"Not the patient\");\r\n        require(patients[msg.sender].status == Status.Matched, \"Match not in correct state\");\r\n        patients[msg.sender].status = Status.PatientApproved;\r\n        emit PatientApproved(_matchId);\r\n    }\r\n    \r\n    // MODIFIED: Use the new `vote` mapping\r\n    function initiateAndVote(uint256 _matchId, bool _approve) public onlyHospital {\r\n        Match storage currentMatch = matches[_matchId];\r\n        require(patients[currentMatch.patient].status == Status.PatientApproved, \"Patient has not pre-approved\");\r\n        require(currentMatch.vote[msg.sender] == 0, \"Already voted\"); // Check vote == 0\r\n        \r\n        currentMatch.validationInitiated = true;\r\n        currentMatch.vote[msg.sender] = _approve ? 1 : 2; // Set vote to 1 (Yes) or 2 (No)\r\n\r\n        if (_approve) { \r\n            currentMatch.yesVotes++; \r\n        }\r\n        emit VoteCast(_matchId, msg.sender, _approve);\r\n    }\r\n    \r\n    function patientAccept(uint256 _matchId) public {\r\n        Match storage currentMatch = matches[_matchId];\r\n        require(msg.sender == currentMatch.patient, \"Not the patient\");\r\n        require(!currentMatch.completed, \"Transfer already completed\");\r\n        \r\n        uint totalHospitals = hospitalAddresses.length;\r\n        require(currentMatch.yesVotes > 0 && totalHospitals > 0, \"No votes or no hospitals\");\r\n        require(currentMatch.yesVotes * 3 >= totalHospitals * 2, \"Insufficient votes\");\r\n        \r\n        currentMatch.completed = true;\r\n        patients[currentMatch.patient].status = Status.MedicallyApproved;\r\n        donors[currentMatch.donorId].status = Status.MedicallyApproved;\r\n        \r\n        address donorHosp = donors[currentMatch.donorId].registeredBy;\r\n        address recipientHosp = patients[currentMatch.patient].registeredBy;\r\n        \r\n        logistics[_matchId] = Logistics(donorHosp, LogisticsStatus.AwaitingPickupApproval, recipientHosp, _matchId);\r\n        \r\n        emit TransferMedicallyApproved(_matchId);\r\n        emit LogisticsInitiated(_matchId, donorHosp, recipientHosp);\r\n    }\r\n    \r\n    // --- Logistics Functions ---\r\n\r\n    function donorHospitalConfirmReady(uint256 _matchId) public onlyHospital {\r\n        Logistics storage l = logistics[_matchId];\r\n        require(l.status == LogisticsStatus.AwaitingPickupApproval, \"Not awaiting pickup approval\");\r\n        require(l.donorHospital == msg.sender, \"Not the donor's hospital\");\r\n        l.status = LogisticsStatus.ReadyForPickup;\r\n        emit OrganReadyForPickup(_matchId);\r\n    }\r\n\r\n    function transactionNodeConfirmPickup(uint256 _matchId) public onlyTransactionNode {\r\n        Logistics storage l = logistics[_matchId];\r\n        require(l.status == LogisticsStatus.ReadyForPickup, \"Not ready for pickup\");\r\n        l.status = LogisticsStatus.AwaitingPickupConfirmation;\r\n        emit OrganPickedUpByNode(_matchId);\r\n    }\r\n\r\n    function donorHospitalConfirmNodePickup(uint256 _matchId) public onlyHospital {\r\n        Logistics storage l = logistics[_matchId];\r\n        require(l.status == LogisticsStatus.AwaitingPickupConfirmation, \"Node has not confirmed pickup yet\");\r\n        require(l.donorHospital == msg.sender, \"Not the donor's hospital\");\r\n        l.status = LogisticsStatus.InTransit;\r\n        emit NodePickupConfirmedByHospital(_matchId);\r\n    }\r\n\r\n    function transactionNodeConfirmDelivery(uint256 _matchId) public onlyTransactionNode {\r\n        Logistics storage l = logistics[_matchId];\r\n        require(l.status == LogisticsStatus.InTransit, \"Not in transit\");\r\n        l.status = LogisticsStatus.Delivered;\r\n        emit OrganDelivered(_matchId);\r\n    }\r\n\r\n    // MODIFIED: Added trust score logic\r\n    function recipientHospitalConfirmReceipt(uint256 _matchId) public onlyHospital {\r\n        Logistics storage l = logistics[_matchId];\r\n        require(l.status == LogisticsStatus.Delivered, \"Not yet delivered\");\r\n        require(l.recipientHospital == msg.sender, \"Not the recipient's hospital\");\r\n        \r\n        l.status = LogisticsStatus.ConfirmedByRecipient;\r\n        patients[matches[_matchId].patient].status = Status.Completed;\r\n        donors[matches[_matchId].donorId].status = Status.Completed;\r\n        \r\n        // --- NEW: Update trust scores (Success) ---\r\n        updateScores(_matchId, true);\r\n\r\n        emit OrganReceiptConfirmed(_matchId);\r\n    }\r\n\r\n    // MODIFIED: Added trust score logic\r\n    function recipientHospitalRejectDelivery(uint256 _matchId) public onlyHospital {\r\n        Logistics storage l = logistics[_matchId];\r\n        require(l.status == LogisticsStatus.Delivered, \"Not yet delivered\");\r\n        require(l.recipientHospital == msg.sender, \"Not the recipient's hospital\");\r\n        l.status = LogisticsStatus.DeliveryRejected;\r\n\r\n        // --- NEW: Update trust scores (Failure) ---\r\n        updateScores(_matchId, false);\r\n\r\n        emit DeliveryRejected(_matchId);\r\n    }\r\n    \r\n    // --- Internal Score Helper (NEW) ---\r\n    function updateScores(uint256 _matchId, bool _success) internal {\r\n        Match storage currentMatch = matches[_matchId];\r\n        \r\n        for (uint i = 0; i < hospitalAddresses.length; i++) {\r\n            address hospitalAddr = hospitalAddresses[i];\r\n            uint8 vote = currentMatch.vote[hospitalAddr]; // 0=NV, 1=Yes, 2=No\r\n            \r\n            if (vote == 1) { // Voted Yes\r\n                if (_success) { // Voted Yes, was Success (Correct)\r\n                    hospitals[hospitalAddr].trustNumerator++;\r\n                    hospitals[hospitalAddr].trustDenominator++;\r\n                } else { // Voted Yes, was Failure (Incorrect)\r\n                    hospitals[hospitalAddr].trustDenominator++;\r\n                }\r\n                emit TrustScoreUpdated(hospitalAddr, hospitals[hospitalAddr].trustNumerator, hospitals[hospitalAddr].trustDenominator);\r\n            } else if (vote == 2) { // Voted No\r\n                if (_success) { // Voted No, was Success (Incorrect)\r\n                    hospitals[hospitalAddr].trustDenominator++;\r\n                } else { // Voted No, was Failure (Correct)\r\n                    hospitals[hospitalAddr].trustNumerator++;\r\n                    hospitals[hospitalAddr].trustDenominator++;\r\n                }\r\n                emit TrustScoreUpdated(hospitalAddr, hospitals[hospitalAddr].trustNumerator, hospitals[hospitalAddr].trustDenominator);\r\n            }\r\n            // If vote == 0 (No Vote), score is unchanged\r\n        }\r\n    }\r\n\r\n    // --- Getter Functions ---\r\n    function hasHospitalVoted(uint256 _matchId, address _hospital) public view returns (bool) { \r\n        return matches[_matchId].vote[_hospital] != 0; // MODIFIED\r\n    }\r\n    \r\n    function getDonorCount() public view returns (uint256) { \r\n        return donorCounter; \r\n    }\r\n\r\n    function getHospitalCount() public view returns (uint) {\r\n        return hospitalAddresses.length;\r\n    }\r\n\r\n    // NEW: Getter for pending proposals\r\n    function getPendingProposals() public view returns (address[] memory) {\r\n        uint count = 0;\r\n        for (uint i = 0; i < hospitalProposalList.length; i++) {\r\n            if (!hospitalProposals[hospitalProposalList[i]].completed) {\r\n                count++;\r\n            }\r\n        }\r\n        \r\n        address[] memory pending = new address[](count);\r\n        uint index = 0;\r\n        for (uint i = 0; i < hospitalProposalList.length; i++) {\r\n            address proposalAddr = hospitalProposalList[i];\r\n            if (!hospitalProposals[proposalAddr].completed) {\r\n                pending[index] = proposalAddr;\r\n                index++;\r\n            }\r\n        }\r\n        return pending;\r\n    }\r\n}",
  "sourcePath": "C:\\Users\\Rithika\\Blockchain\\Checker\\contracts\\OrganTransplant.sol",
  "compiler": {
    "name": "solc",
    "version": "0.7.3+commit.9bfce1f6.Emscripten.clang"
  },
  "schemaVersion": "3.4.16",
  "updatedAt": "2025-10-22T18:28:57.586Z",
  "networkType": "ethereum",
  "devdoc": {
    "kind": "dev",
    "methods": {},
    "version": 1
  },
  "userdoc": {
    "kind": "user",
    "methods": {},
    "version": 1
  }
}